:0A016000C0F9A4B0999282F88090D3
:10000600E4F508F509F50AF50BF50C1200F41201F2
:100016003C1201481201291201161200D1AF0D7EC1
:1000260000EF60020508AD0E7C00ED60020509E5F3
:100036000F6002050A050BC3E50B942974809480B2
:100046004005050CE4F50BAB0C7A00EB640A700274
:10005600C2A3EB640B4A7002D2A3C3E508942974C9
:100066008094804009E4F508EF4E6002150DC3E563
:10007600099429748094804009E4F509ED4C6002E6
:10008600150EC3E50A9429748094804081E4F50A2C
:0C009600E50F7003020014150F020014A7
:1000F400C290C291C292D2B2D2B1D2B0D2AFD2A87F
:10010400D288E4F50DF50EF50FD2A0D2A1D2A2D279
:02011400A32224
:10011600E50D7002D2A0E50E7002D2A1E50F7002C5
:03012600D2A22240
:0300030002016A8D
:09016A00750D09C2A030B2FD328E
:1000D1007F017E00EF1FAC0670011E4C6014758914
:1000E10001758C3C758AB0D28C308DFDC28DC28C6D
:0200F10080E2AB
:0100F30022EA
:1000A200EF14601314601C24027023ED900160931E
:1000B200F580D290C29022ED90016093F580D291AA
:0F00C200C29122ED90016093F580D292C29222FA
:10012900AD0DE4FF1200A2AD0E0F1200A2AD0F0F2C
:030139000200A21F
:0C013C0020B108750E09C2A130B1FD22EF
:0C01480020B008750F09C2A230B0FD22E3
:03000000020154A6
:0C015400787FE4F6D8FD75810F020006EC
:00000001FF
