:0A00DE00C0F9A4B0999282F8809056
:1000B200E4FDFCC3ED9FEC9E5015E4FBFA0BBB0084
:0F00C200010AEB647B4A70F50DBD00010C80E470
:0100D100220C
:10000300E4F508F509AE08AF097C007D0A12005D2E
:100013008E0A8F0B74DE2FF58274003EF583E49312
:10002300F590AE08AF097C007D0A12005D8C0C8D43
:100033000D74DE250DF5827400350CF583E493F51C
:10004300807FF47E011200B20509E50970020508FC
:09005300C39464E508940040AC7C
:01005C002281
:0500E80012000380FB83
:030000000200D229
:0C00D200787FE4F6D8FD75810D0200E88F
:10005D00BC000BBE0029EF8DF084FFADF022E4CC87
:10006D00F875F008EF2FFFEE33FEEC33FCEE9DEC50
:10007D00984005FCEE9DFE0FD5F0E9E4CEFD22ED96
:10008D00F8F5F0EE8420D21CFEADF075F008EF2FE0
:10009D00FFED33FD4007985006D5F0F222C398FDD1
:0500AD000FD5F0EA226E
:00000001FF
