:07006E0075A0FF7FFA7E0080
:10007500E4FDFCC3ED9FEC9E5015E4FBFA0BBB00C1
:0F008500010AEB647B4A70F50DBD00010C80E4AD
:010094002249
:0700B300E5A0C313F5A02234
:0900A100E5A0C3134480F5A02280
:0700BA00E5A025E0F5A022FE
:0900AA00E5A025E04401F5A022C7
:1000030012006E9000001200B3120071A3E5826427
:1000130008458370F112006EE4F583F5821200BA8D
:10002300120071A3E5826408458370F112006E75B6
:10003300A07F120075E4F583F5821200A11200710E
:10004300A3E5826407458370F112006E75A0FE126A
:100053000075E4F583F582C3E5829407E583940094
:0B006300509E1200AA120071A380EC56
:0300000002009566
:0C009500787FE4F6D8FD758107020003B7
:00000001FF
