:0900E400E5A0C3134480F5A0223D
:100079007F027E00EF1FAC0670011E4C601475896B
:1000890001758C3C758AB0D28C308DFDC28DC28CC5
:0200990080E203
:01009B002242
:0F00C90020B10B0509E5097002050830B1FD22D1
:1000030020B04DE50C702DE50D146012146017142B
:10001300601C2403701E750E00750F058016750E87
:1000230000750F0A800E750E00750F148006750E8D
:1000330000750F1E050DE50D7002050C30B0FDE5D2
:100043000D6404450C7004F50CF50DE4F50AF50B8D
:01005300228A
:10005400120079050BE50B7002050AB50F0DE50AD0
:10006400B50E08E4F50AF50B1200E4AFA0EFF47046
:050074000375A07F22CE
:10009C00D2B0D2B1E4F508F509F50E750F0AF50CDE
:0A00AC00F50DF50AF50B75A07F2293
:1000B60012009C1200C9E50920E0F81200031200A4
:0300C6005480F073
:030000000200D823
:0C00D800787FE4F6D8FD75810F0200B6B9
:00000001FF
