:0A010300C0F9A4B0999282F8809030
:1000D700E4FDFCC3ED9FEC9E5015E4FBFA0BBB005F
:0F00E700010AEB647B4A70F50DBD00010C80E44B
:0100F60022E7
:10000300E4F508F509E4F50AF50BAE08AF097C0041
:100013007D0A1200828E0C8F0D74032FF5827401FA
:100023003EF583E493F5B0D2A07F197E001200D78A
:10003300C2A0AE08AF097C007D0A1200828C0E8D2F
:100043000F7403250FF5827401350EF583E493F5E0
:10005300B0D2A17F197E001200D7C2A1050BE50B18
:100063007002050AC3940AE50A9400409D0509E558
:0E0073000970020508C39464E50894004087F4
:01008100225C
:05010D0012000380FB5D
:030000000200F704
:0C00F700787FE4F6D8FD75810F02010D42
:10008200BC000BBE0029EF8DF084FFADF022E4CC62
:10009200F875F008EF2FFFEE33FEEC33FCEE9DEC2B
:1000A200984005FCEE9DFE0FD5F0E9E4CEFD22ED71
:1000B200F8F5F0EE8420D21CFEADF075F008EF2FBB
:1000C200FFED33FD4007985006D5F0F222C398FDAC
:0500D2000FD5F0EA2249
:00000001FF
