:10010100AFA0EFF47007E5A0C313F5A022E5A0C3EB
:06011100134480F5A0225A
:10006C00EF1FAA0670011E4A60227C007D0AED1D5E
:10007C00AA0470011C4A60E8758901758C3C758A6C
:0C008C00B0D28C308DFDC28DC28C80E2A1
:010098002245
:03001300020122C5
:0A012200630BFF630AFF30B3FD32E8
:030003000200C236
:1000C200C0E0E50B6401450A7013050FE50F7002ED
:1000D200050E0509E5097002050830B2FDD0E032CF
:10001600E50F6401450E7004F508F509E509450884
:100026007007F50C750D01802BE509640145087014
:1000360007F50C750D02801CE5096402450870077A
:10004600F50C750D04800DE509640345087005F58A
:100056000C750D06E509640445087009F508F509EF
:06006600F50C750D0122EE
:0B011700D2AFD2A8D288D2AAD28A228E
:1000E200D2B2D2B3750A00750B01750C00750D0200
:0F00F200750800750901E4F50EF50F75A0FF22E2
:100099001200E2120117120016E50B6401450A70FD
:1000A900F5120101AFA0EFF4700375A07FAF0DAE9B
:0900B9000C12006C12001680DD2F
:03000000020006F5
:0C000600787FE4F6D8FD75810F020099A8
:00000001FF
