:1000030020003E0000000020202020204D41494ECA
:10001300204D454E552020202020000000002020A8
:100023002052454348414E47452020202020202090
:100033002000FF006620202053455454494E47209A
:10004300202020202020202000FF01E22020204526
:100053005849542020202020202020202020200028
:10006300000000FF00072020203530303020202002
:1000730020202020202020202000FF00C520202039
:10008300313030303020202020202020202020201C
:1000930000FF00C5202020313530303020202020C3
:1000A3002020202020202000FF00C52020203230E7
:1000B300303030202020202020202020202000FF4E
:1000C30000C5FF0066202052454442554C4C203168
:1000D300303030302020313000FF012420204E55B5
:1000E3004D42455231203130303030202031300004
:1000F300FF01242020434F4D5041435420313030E1
:1001030030302020313000FF012420204D4F4E534A
:100113005445522031303030302020313000FF013F
:1001230024FF00C52020434F4341434F4C4120351A
:100133003030302020313500FF01832020504550DE
:10014300534920202020353030302020313500FF26
:10015300018320204C415649452020202035303052
:10016300302020313000FF018320205354494E4773
:1001730020202020353030302020313000FF018313
:10018300FF01242020544947455220203134303088
:1001930030202031322000000000202048414E4F03
:1001A300492020313030303020203234200000000C
:1001B3000020204855444120202039303030202071
:1001C300203234200000000020203333332020204D
:1001D300203830303020202032342000000000FF4F
:1001E300000720202020202053455454494E472007
:1001F3002020202020000000002020204348414EE2
:10020300474520202020202020202020000000001F
:1002130020202044454C45544520202020202020E8
:1002230020202000000000202020534F5254202083
:0E02330020202020202020202020000000007D
:10024100750801750900750A0712065A1204122071
:10025100B44830B4FD7BFF7A007903E4FDAF0812A6
:1002610004787407B50A177400B50912E508640328
:1002710070047F018004E50804FF8F08800FE50802
:1002810064037003FF8004E50804FF8F087BFF7A95
:10029100007905E4FDAF0812047820B34730B3FDBF
:1002A1007BFF7A007903E4FDAF081204787407B587
:1002B1000A177400B50912E508640170047F038010
:1002C10004E50814FF8F08800EE50870047F0380A1
:1002D10004E50814FF8F087BFF7A007905E4FDAF80
:1002E1000812047830B5030203EC30B5FDE50814BB
:1002F100604C1470030203761470030203AD2403EF
:1003010060030203E6E50A2417F582E43509F58363
:10031100E493FB740193FA7402934A4B7007AE099C
:10032100AF0A0203E2E50A2417F582E43509F583F1
:10033100E4740193FA740293AE02FF0203E2E50A48
:10034100242EF582E43509F583E493FB740193FAD5
:100351007402934A4B7006AE09AF0A8016E50A246F
:100361002EF582E43509F583E4740193FA7402935E
:10037100AE02FF806CE50A2445F582E43509F58378
:10038100E493FB740193FA7402934A4B7006AE092D
:10039100AF0A8016E50A2445F582E43509F583E4C0
:1003A100740193FA740293AE02FF8035E50A245C6E
:1003B100F582E43509F583E493FB740193FA740241
:1003C100934A4B7006AE09AF0A8016E50A245CF524
:1003D10082E43509F583E4740193FA740293AE0261
:1003E100FF8E098F0A75080112041230B60302024A
:1003F1005030B6FD850A82850983E4740193FA744D
:100401000293AE028E09F50AAD08FF12041802022A
:01041100509A
:0E065A00120613D2B3D2B4D2B5D2B6D2B722A2
:06041200AD08AF0AAE09BF
:100418008E0B8F0C8D0DEF2403FFE43EFAA9077BAA
:10042800FFE4FDFF120478E50C241AFFE4350BFA0B
:10043800A9077BFFE4FD7F01120478E50C2431FF56
:10044800E4350BFAA9077BFFE4FD7F02120478E587
:100458000C2448FFE4350BFAA9077BFFE4FD7F0372
:100468001204787BFF7A007905E4FDAF0D02047869
:10061300E4F5907F14FE12063A7F021205307F281C
:100623001205307F0C1205307F061205307F011250
:0706330005307F8002053055
:100530008F13E51354F0FFE590540F4FF590C290E0
:10054000C291D2927F017E0012063AC2927F027E51
:100550000012063AE513C454F0FFE590540F4FF52E
:1005600090D2927F017E0012063AC2927F027E00F4
:0305700002063A46
:1004DB008F198D1AEF3395E04F7008E51A540F44BE
:1004EB0080803DAF19EF3395E0FEEF64014E70084D
:1004FB00E51A540F44C08028AF19EF3395E0FEEF97
:10050B0064024E7008E51A540F44948013AF19EF30
:10051B003395E0FEEF64034E700AE51A540F44D492
:05052B00FF1205302263
:100573008F18E51854F0FFE590540F4FF590D29083
:10058300C291D2927F017E0012063AC2927F027E0E
:100593000012063AE518C454F0FFE590540F4FF5E6
:1005A30090D2927F017E0012063AC2927F027E00B1
:0305B30002063A03
:0605B6008B138A14891565
:1005BC00E4F516F517AB13AA14A915851782851641
:1005CC00831205E6FFFD3395E04D600D12057305B2
:0905DC0017E51770E0051680DC3C
:0105E50022F3
:100478008F0E8D0F8B108A118912EF3395E04F7014
:1004880008E50F540F4480803DAF0EEF3395E0FE32
:10049800EF64014E7008E50F540F44C08028AF0E7A
:1004A800EF3395E0FEEF64024E7008E50F540F44F9
:1004B800948013AF0EEF3395E0FEEF64034E700A9D
:1004C800E50F540F44D4FF120530AB10AA11A9123E
:0304D8000205B664
:10063A00E4FDFCC3ED9FEC9E5015E4FBFA0BBB00F6
:0F064A00010AEB647B4A70F50DBD00010C80E4E2
:01065900227E
:030000000206688D
:0C066800787FE4F6D8FD75811A0202418B
:1005E600BB010CE58229F582E5833AF583E02250CA
:1005F60006E92582F8E622BBFE06E92582F8E22214
:0D060600E58229F582E5833AF583E493222D
:00000001FF
