:0A009900C0F9A4B0999282F880909B
:10006D00E4FDFCC3ED9FEC9E5015E4FBFA0BBB00C9
:0F007D00010AEB647B4A70F50DBD00010C80E4B5
:01008C002251
:10003B00AD07E4FBEBC394087480948050237E00DF
:10004B007480A803088006CEA2E713CE13D8F8FF5E
:10005B00EDF582EF558224FF92A1C2A0D2A00B80B6
:01006B00D3C1
:01006C002271
:10000300E4F9E9C394647480948050F4E975F00AC8
:100013008490009993F508E975F00A84E5F093F567
:1000230009FF12003BAF0812003BC2A2D2A27FF429
:080033007E0112006D0980CA74
:0300000002008D6E
:0C008D00787FE4F6D8FD758109020003BD
:00000001FF
