:06001900010920010800AE
:1000B200120003E508640170FAE509B43102B2A046
:1000C200E509B43202B2A2E509B43302B2A4E4F5FE
:0300D2000880E0C3
:10000300759850D2AFD2AC758920758DFDD28ED242
:06001300A0D2A2D2A4223B
:030023000200D503
:0E00D50030980A859909C298C29975080132BF
:03000000020026D5
:0C002600787FE4F6D8FD75810902006DBA
:100032000200B2E493A3F8E493A34003F68001F232
:1000420008DFF48029E493A3F85407240CC8C333CF
:10005200C4540F4420C8834004F456800146F6DF9E
:10006200E4800B0102040810204080900019E47E15
:10007200019360BCA3FF543F30E509541FFEE49393
:10008200A360010ECF54C025E060A840B8E493A35A
:10009200FAE493A3F8E493A3C8C582C8CAC583CA85
:1000A200F0A3C8C582C8CAC583CADFE9DEE780BE3D
:01001F0000E0
:00000001FF
