:0300E300010820F1
:100003007509411200B220A10A30A1FDAF09120007
:10001300C60509E508B43104C2A080EAD2A080E68F
:1000B200759850758920758DFDD28ED2AFD2ACD293
:0400C200A1D2A02205
:030023000200D503
:0E00D500309805859908C298309902C2993278
:0F00C6008F99209904C29980F9309802C298222C
:03000000020026D5
:0C002600787FE4F6D8FD75810902006DBA
:10003200020003E493A3F8E493A34003F68001F2E1
:1000420008DFF48029E493A3F85407240CC8C333CF
:10005200C4540F4420C8834004F456800146F6DF9E
:10006200E4800B01020408102040809000E3E47E4B
:10007200019360BCA3FF543F30E509541FFEE49393
:10008200A360010ECF54C025E060A840B8E493A35A
:10009200FAE493A3F8E493A3C8C582C8CAC583CA85
:1000A200F0A3C8C582C8CAC583CADFE9DEE780BE3D
:0100E6000019
:00000001FF
