:03001900010B20B8
:1000B2001200FD750841E4F509F50A20A40830A4F0
:1000C200FDAF0812011FE50BB441F07F0A120003D5
:1000D200050AC3E50A941A7480948040DEE5095447
:1000E200017004C2A08002D2A00509E509640A7069
:0B00F20005F509750B42E4F50A80C01B
:1000FD00759850D2AFD2AC758920758DFDD28ED248
:04010D00A4D2A022B6
:0D011F008F993099FDC299309802C2982244
:03002300020111C6
:0E01110030980585990BC298309902C2993238
:10000300AD071FED600FE4FEEEC3947B7480948014
:0500130050EE0E80F329
:0100180022C5
:03000000020026D5
:0C002600787FE4F6D8FD75810B02006DB8
:100032000200B2E493A3F8E493A34003F68001F232
:1000420008DFF48029E493A3F85407240CC8C333CF
:10005200C4540F4420C8834004F456800146F6DF9E
:10006200E4800B0102040810204080900019E47E15
:10007200019360BCA3FF543F30E509541FFEE49393
:10008200A360010ECF54C025E060A840B8E493A35A
:10009200FAE493A3F8E493A3C8C582C8CAC583CA85
:1000A200F0A3C8C582C8CAC583CADFE9DEE780BE3D
:01001C0000E3
:00000001FF
