:0A00ED00C0F9A4B0999282F8809047
:1000C100E4FDFCC3ED9FEC9E5015E4FBFA0BBB0075
:0F00D100010AEB647B4A70F50DBD00010C80E461
:0100E00022FD
:10000300C2A0C2A1E4F508F509AE08AF097C007DE2
:100013000A12006CAA04AB05EB4A701CAE08AF09C8
:10002300FC7D0A12006C74ED2FF58274003EF5839B
:10003300E493F5B0D2A0C2A08A0A8B0B74ED250B12
:10004300F5827400350AF583E493F5B0D2A1C2A119
:100053007FF47E011200C10509E50970020508C39A
:080063009464E508940040A13B
:01006B002272
:0500F70012000380FB74
:030000000200E11A
:0C00E100787FE4F6D8FD75810B0200F773
:10006C00BC000BBE0029EF8DF084FFADF022E4CC78
:10007C00F875F008EF2FFFEE33FEEC33FCEE9DEC41
:10008C00984005FCEE9DFE0FD5F0E9E4CEFD22ED87
:10009C00F8F5F0EE8420D21CFEADF075F008EF2FD1
:1000AC00FFED33FD4007985006D5F0F222C398FDC2
:0500BC000FD5F0EA225F
:00000001FF
